:020000040800F2
:1000000030050020AD0100085B1D0008D71A00086C
:10001000591D0008B50800089D21000800000000D7
:100020000000000000000000000000005F1D00084C
:10003000B7080008000000005D1D0008611D0008F1
:10004000C7010008C7010008C7010008C701000870
:10005000C7010008C7010008C7010008C701000860
:10006000C7010008C7010008C7010008C701000850
:10007000C7010008C7010008C7010008C701000840
:10008000C7010008C7010008C70100080000000000
:10009000000000000000000000000000C701000890
:1000A000C7010008C7010008C7010008C701000810
:1000B000011E00080D1E0008C7010008C701000846
:1000C000C7010008C7010008C7010008C7010008F0
:1000D000C7010008C7010008C701000800000000B0
:1000E000B9080008C7010008C701000800000000A7
:1000F000000000000000000000000000C701000830
:1001000000000000C7010008C7010008C70100087F
:1001100000000000000000000000000000000000DF
:10012000C7010008C7010008C7010008C70100088F
:10013000C7010008000000000000000000000000EF
:10014000000000000000000000000000C7010008DF
:10015000C7010008C7010008C7010008C70100085F
:10016000C7010008C70100080000000000000000EF
:10017000000000000000000000000000000000007F
:1001800000000000C701000800000000000000009F
:10019000C7010008C7010008DFF80CD000F0E4FA3E
:1001A00000480047E1250008300500200648804748
:1001B00006480047FEE7FEE7FEE7FEE7FEE7FEE74C
:1001C000FEE7FEE7FEE7FEE7E51D000899010008EF
:1001D0002DE9F05F0546002092469B46884606467C
:1001E000814640241BE0284641464746224600F00F
:1001F0003CFA53465A46C01A914110D3114618464C
:10020000224600F023FA2D1A67EB01084F462246DA
:100210000120002100F01AFA17EB00094E41201EC0
:10022000A4F10104DFDC484631462A464346BDE8D6
:10023000F09FD2B201E000F8012B491EFBD27047BB
:100240000022F6E710B513460A4604461946FFF7A2
:10025000F0FF204610BD421C10F8011B0029FBD105
:10026000801A70472DE9FE4F804681EA0300C00FD7
:100270000C46009021F0004123F00045B8EB02004D
:10028000A94105D24046214690461C460B460246EF
:1002900023F00040104347D0270DC7F30A00C3F3F3
:1002A0000A510290401A019040286BDAC3F3130000
:1002B00040F4801B0098924620B10023D2EB030A41
:1002C00063EB0B0B01985946C0F14002504600F019
:1002D000BDF906460D4650465946019A00F0D5F93B
:1002E00010EB08006141002487EA115284EAE773A9
:1002F0001A4340D0009A62B3019A012A4FEA07528A
:1003000015DC001B61EB02014FF0004202EA0752CC
:10031000CDE90042001C41F5801132462B4600F029
:10032000D5F903B0BDE8F08F40462146F9E7001B40
:1003300061EB0201001C41F5801300185B4120189D
:10034000A2F5001747EB030140EAD570B6196D41DD
:1003500011E06D084FEA360645EAC0754FEA0752CC
:10036000001B61EB0201001C41F5801149084FEAB6
:1003700030000019514132462B4603B0BDE8F04F22
:1003800000F095B90098012240000023D0EB020252
:1003900063EBE073009821464FEAE074B8EB00008D
:1003A00061EB0401E9E783F000435BE781F0004182
:1003B00058E72DE9FE4F81EA030404F0004421F0E0
:1003C000004100944FF0000B23F0004350EA010479
:1003D0005ED052EA03045BD0C3F30A54C1F30A555A
:1003E0002C44A4F2F3340194A0FB0254C1F3130192
:1003F00041F48011C3F3130343F4801301FB02445F
:1004000000FB034E840A970A44EA815447EA835763
:10041000A4FB076802958D0A05FB07854FEA932C1C
:1004200004FB0C542705029D4FEA065847EA16378D
:10043000B5EB08056EEB070C870E920E47EA8117A5
:1004400042EA8312A7FB0201B6EB0B0164EB000446
:100450002B0D43EA0C335E1844EB1C50DA46514630
:10046000E7FB0201C5F313044FEA0B3343EA1453CD
:100470004FEA0432019C43EA0603A4F10C040294FF
:10048000009CCDE900B400F021F903B0BDE8F08F85
:1004900000200146F9E72DE9F04D81EA030404F05C
:1004A000004B21F0004514464FF0000A23F00041B4
:1004B00050EA050220D054EA01021DD0C5F30A57C4
:1004C0000246C5F31303C1F31300C1F30A5640F407
:1004D000801543F48013A7EB0608101BD64608F2DC
:1004E000FD3873EB050002D308F1010801E0921812
:1004F0005B41B8F1000F03DA00200146BDE8F08D42
:1005000000204FF48011064684460EE0171B73EB63
:10051000050705D3121B63EB050306434CEA010CE8
:1005200049084FEA300092185B4150EA0107EDD1CB
:1005300052EA030012D082EA040083EA050108436C
:1005400005D0101BAB4106D20122002306E0002299
:100550004FF0004302E06FF0010253101AEB060067
:100560004CEB085110EB0A0041EB0B01BDE8F04DDC
:1005700000F09DB80EB5C10F80EAE0700844CA07CC
:10058000002140F233438DE80E000A460B4600F08E
:100590009DF803B000BD0EB540F233410291002139
:1005A000CDE900110A460B4600F090F803B000BDFB
:1005B00070B5C1F30A5201F000450024C1F31301E4
:1005C00040F2FF3341F480119A4201DA002070BDFD
:1005D00040F233439A42A2F2334203DC524200F02B
:1005E00044F800E090402C43F1D0404270BDC1F38C
:1005F0000A5210B5C1F3130140F2FF3341F48011E8
:100600009A4201DA002010BD40F233439A42A2F22E
:10061000334203DC524200F028F810BD904010BD78
:1006200030B50B46014600202022012409E021FAC2
:1006300002F59D4205D303FA02F5491B04FA02F5BF
:100640002844151EA2F10102F1DC30BD202A04DB92
:10065000203A00FA02F1002070479140C2F12003D5
:1006600020FA03F3194390407047202A04DB203A14
:1006700021FA02F00021704721FA02F3D040C2F1C2
:1006800020029140084319467047202A06DBCB1709
:10069000203A41FA02F043EAE07306E041FA02F33D
:1006A000D040C2F12002914008431946704710B56E
:1006B000141E73F1000408DA401C41F10001921885
:1006C0005B411A4301D120F0010010BD2DE9F04D2E
:1006D00092469B4611B1B1FA81F202E0B0FA80F283
:1006E00020329046FFF7B2FF04460F4640EA0A0068
:1006F00041EA0B0153465A46084313D0114653EAC8
:10070000010019D0C8F140025046FFF7AEFF054680
:100710000E46504659464246FFF798FF084305D01B
:10072000012004E020463946BDE8F08D0020054355
:1007300046EAE0762C4337430A986305E40AA0EBC7
:1007400008000022FD0A44EA47540A3002D500207E
:100750000146E9E7010510196941DDE9084500197D
:100760006941BDE8F04DA2E7064C074D06E0E068A0
:1007700040F0010394E8070098471034AC42F6D3E8
:10078000FFF70EFD84280008A4280008464910B58C
:100790004A6822F440324A604A6843681A434A6011
:1007A00001684A6822F480724A6001684A680369F5
:1007B00042EA03224A6001684A6822F040724A60B5
:1007C00001684A6883681A434A6001688A6822F4AB
:1007D00000628A6001688A68C3681A438A60816A15
:1007E0006FF07062D14201688A6822F070628A609C
:1007F00001688A680CD0836A1A438A6001688A6833
:1008000022F040528A6001688A68C36A1A4301E094
:1008100022F040528A6001688A6822F002028A60EF
:1008200001688A68037E42EA43028A6090F82010D9
:10083000002901684A680FD042F400624A600168EA
:100840004A6822F460424A6001684A68174C436A69
:1008500004EB43331A4301E022F400624A6001686A
:10086000CA6A22F47002CA620168CA6A838B104C99
:1008700004EB03531A43CA6201688A6822F40072C7
:100880008A6001688A6890F8303042EA43228A60C0
:1008900001688A6822F480628A6001688A68406917
:1008A00042EA8020886010BD0023014000E0FFFF85
:1008B0000000F0FFFEE7704710B54FF400542146EA
:1008C000054800F0D5FA08B901F044FE2046BDE81D
:1008D000104000F0F7B90000000802407047000027
:1008E00078B50024009490F83C20012A19D0012208
:1008F00080F83C200A6807230568092A13D9EE68A6
:100900000A3A02EB420293409E43EE600B788A68FB
:100910000A3B03EB43039A400368DD682A43DA602D
:1009200010E0022078BD2E6902EB420293409E4304
:100930002E610B788A6803EB43039A4003681D69B4
:100940002A431A614A681F23072A13D205686E6B6F
:10095000521E02EB820293409E436E630A8893B25A
:100960000A79521E02EB820293400268556B2B43B8
:10097000536327E005680D2A12D22E6BD21F02EBBB
:10098000820293409E432E630B790A88DB1F92B24A
:1009900003EB83039A4003681D6B2A431A6311E03B
:1009A000EE6A0D3A02EB820293409E43EE620B79AF
:1009B0000A880D3B92B203EB83039A400368DD6A19
:1009C0002A43DA621B4B0568194A9D420AD10D6819
:1009D000122D07D1556825F400055560556845F47A
:1009E0008005556005689D421DD1134D0B68AB42D3
:1009F00001D0112B17D1536823F48003536053683F
:100A000043F4000353600968A9420CD10B490C4A16
:100A10000968B1FBF2F101EB8101490000E0491ED8
:100A200000910029FBD180F83C40002078BD0000F7
:100A3000002301400020014012000010140000209B
:100A400040420F000068C06C704770B504004FF062
:100A5000000503D0206C002610B107E0012070BD16
:100A6000204600F01DF8666484F83C60206CC006E7
:100A700010D4206C20F4885040F0020020642046FE
:100A8000FFF784FE6664206C20F0020040F0010055
:100A9000206400E0012584F83C60284670BD000019
:100AA00010B586B0044614216846FFF7C9FB11490A
:100AB000206888421CD110480021026842F48072EC
:100AC0000260006800F4807005900B4814380268DA
:100AD00042F001020260006800F00100059013205E
:100AE00000900320CDE901016946044800F0F6F8C2
:100AF00006B010BD00200140443802400000024012
:100B00002DE9F041044600680D4681684FF000076A
:100B100049050BD58068C00508D5206C40F0200041
:100B2000206484F83C700120BDE8F08100F0AAF94F
:100B300006460FE0681C0DD025B100F0A3F9801B1C
:100B4000A84207D9206C40F00400206484F83C706F
:100B50000320E9E7206800688007EBD521686FF083
:100B600012000860206C40F40070206420688168E6
:100B700011F0405F13D1217E89B9C16A11F4700F61
:100B800002D0806840050AD4206C20F48070206474
:100B9000206CC00403D4206C40F0010020640020CD
:100BA000C2E7000018B50021009190F83C20012A0E
:100BB00007D0012280F83C2002689368DB0702D04E
:100BC00011E0022018BD936843F001039360204AAE
:100BD000204B1268B2FBF3F202EB420200E0521E1D
:100BE0000092002AFBD102689368DB072DD0036CCA
:100BF00040F20164A34343F48073036453685B05CC
:100C000005D5036C23F4005343F480530364036C51
:100C1000DB0404D5436C23F00603436400E0416425
:100C200080F83C100C496FF022031360496800689B
:100C3000C90602D00949884207D1816811F0405F96
:100C400003D1816841F080418160002018BD00001F
:100C50001400002040420F0000230140002001400A
:100C600090F83C1001290CD0012180F83C1001685B
:100C70008A6822F001028A6001688968C90702D087
:100C800007E002207047016C21F4885141F0010116
:100C90000164002180F83C100846704770B5044696
:100CA00000F0F0F80546601C02D0044800780444C7
:100CB00000F0E8F8401BA042FAD370BD0800002005
:100CC00070470000044910B50A68024202D008606B
:100CD000FFF7F6FF10BD0000143C01402DE9F84F6E
:100CE00000224FF0010803254FF00F0E0B6808FAA1
:100CF00002F42340A34271D14E68012E05D0022E8A
:100D000003D0112E01D0122E15D18668570005FA96
:100D100007FC26EA0C06D1F80CC00CFA07FC4CEADA
:100D2000060CC0F808C04668A6430C79C4F300144A
:100D3000944034434460C668570005FA07FC8C6849
:100D400026EA0C06BC403443C4604C68022C01D037
:100D5000122C13D1D40800EB8404A346D4F82090BD
:100D600054074FEAD46A0EFA0AF629EA06090E6910
:100D700006FA0AF646EA0906CBF8206004680E79FE
:100D800024EA0C0406F00306BE40264306604C68C5
:100D9000E40056D52E4C266846F48046266024682A
:100DA00022F0030604F4804400942A4C3444A44600
:100DB000D4F808489607370F0EFA07F6B443264EC4
:100DC000B04201D1002615E0244EB04201D10126E7
:100DD00010E0234EB04202D102260BE031E0214E5A
:100DE000B04201D1032605E01F4EB04201D10426D6
:100DF00000E00726BE402643CCF808681B4E346846
:100E00004F689C43FF0300D51C433460174E361DCA
:100E100034684F689C43BF0300D51C433460134EB5
:100E2000083634684F689C43FF0200D51C43346089
:100E30000E4E0C3634684F689C43BF0200D51C43ED
:100E40003460521C102AFFF451AFBDE8F88F000047
:100E500044380240003001400000024000040240DB
:100E600000080240000C024000100240003C01401B
:100E70000069084000D0012070470AB181617047C5
:100E80000904FBE701488068704700000800002063
:100E90000248816802781144816070470800002090
:100EA0000B4810B5016841F400710160016841F41C
:100EB00080610160016841F480710160032000F0ED
:100EC00071F8002000F006F800F024F8002010BDB2
:100ED000003C024070B50D4D04464FF47A712878FD
:100EE000B1FBF0F00A490968B1FBF0F000F004FB37
:100EF00048B9102C07D200222146501E00F032F8CB
:100F000000206C6070BD012070BD00000800002052
:100F1000140000200B4882B0016841F48041016058
:100F2000006800F4804000900648001F016841F00E
:100F300080510160006800F080500090062002B0EF
:100F400000F030B844380240002809DB00F01F02EE
:100F5000012191404009800000F1E020C0F800111B
:100F600070470000F0B40E4B1B680C46C3F302231D
:100F7000C3F10705042D00D90425191D072901D245
:100F8000002300E0DB1E012606FA05F1491E214080
:100F900099409E40761E16403143F0BC01F014B9D2
:100FA0000CED00E0064900F0070208684FF6FF0369
:100FB000184040EA0220034A1043086070470000CE
:100FC0000CED00E00000FA052DE9F0470E460500A3
:100FD00065D0DFF81481D8F80000F7B200F00F00F8
:100FE000B04207D288F80070D8F8000000F00F0077
:100FF000B04254D128683D4C810712D5400703D533
:10100000206840F4E05020602878000703D520686D
:1010100040F4604020602068A96820F0F000084398
:1010200020602878C0072DD0304968680839012829
:1010300012D0022813D0032811D00968890700298B
:101040002DDA216821F0030101432160FFF71AFF27
:10105000814641F2883A0EE009688903EFE70968A2
:101060008901ECE7FFF70EFFA0EB0901514502D91A
:101070000320BDE8F0872068696800F00C00B0EB41
:10108000810FEFD1D8F80010404601F00F01B142B6
:1010900007D90770006800F00F00B04201D00120AE
:1010A000E7E72878400705D52068E96820F4E05094
:1010B000084320602878000706D52068296920F4B5
:1010C000604040EAC100206000F038F82168084A1A
:1010D000C1F30311515CC840064908600648006826
:1010E000FFF7F8FE0020C4E7003C02400838024049
:1010F0006C280008140000200C000020044805495A
:1011000000680968044AC1F38221515CC8407047F5
:1011100014000020083802407C28000804480549D3
:1011200000680968044AC1F34231515CC840704705
:1011300014000020083802407C280008154810B52B
:10114000006810F00C02144813D04110042A0FD08C
:10115000082A0ED10F4C241F2268236802F03F0298
:101160005B0207D52068C0F38810A0FB010106E0F0
:10117000084610BD2168C1F38811A1FB00010023BE
:10118000FFF726F82168C1F30141491C4900B0FB73
:10119000F1F010BD083802400024F4002DE9F84FAA
:1011A000040076D02078DFF838A3CE4DC00749D0B0
:1011B000DAF800105046C1F38101012908D0006817
:1011C000C0F3810002280AD1281D0068400206D51C
:1011D0002868800336D560680028E2D032E0606875
:1011E000B0F5803F10D0B0F5A02F286810D020F4C3
:1011F00080302860286820F4802028606068A0B1D2
:10120000FFF740FE06460CE0286840F48030F4E723
:1012100040F480202860F7E7FFF734FE801B642845
:1012200073D828688003F7D50CE0FFF72BFE06463D
:1012300005E000BFFFF726FE801B6428F0D8286871
:101240008003F7D42078DFF8A08280074FF00009F0
:101250003ED5DAF80010504611F00C0F09D00068A6
:10126000C0F3810002280BD19D48001F0068400296
:1012700006D42868800715D5E068012809D111E057
:10128000E068B8B10120C8F80000FFF7FBFD064692
:1012900005E020E1FFF7F6FD801B0228C0D8286892
:1012A0008007F7D52868216920F0F80040EAC100DE
:1012B00028600DE0C8F80090FFF7E4FD064604E062
:1012C000FFF7E0FD801B02281FD828688007F7D4AD
:1012D0002078000722D5824E844861696C3671B14E
:1012E00001210160FFF7CEFD074604E0FFF7CAFDCC
:1012F000C01B022809D830688007F7D50EE0C0F877
:101300000090FFF7BFFD074605E082E0FFF7BAFD5A
:10131000C01B02287DD830688007F7D420784007AA
:1013200068D5DFF8BCB100270BF1380BDBF8000003
:10133000C0000BD4DBF8001041F08051CBF8001056
:10134000DBF80000012700F080500090684E306804
:10135000C00510D4306840F480703060FFF792FD13
:10136000009005E0FFF78EFD0099401A022850D842
:101370003068C005F6D55A4EA068683601280FD0EF
:101380000528306810D020F001003060306820F06F
:1013900004003060A068B8B1FFF774FD00900FE062
:1013A000306840F00100F4E740F004003060F7E7F7
:1013B000FFF768FD0099411A41F28830814266D8F2
:1013C00030688007F4D50EE0FFF75CFD009007E081
:1013D000FFF758FD0099411A41F28830814256D8F2
:1013E00030688007F4D42FB1DBF8001021F0805171
:1013F000CBF80010A069D0B3DAF800205146C2F350
:101400008102022A4AD00228484607D0C8F8600064
:1014100000E03CE0FFF736FD04463BE04746C8F8F5
:101420006000FFF72FFD064605E000BFFFF72AFD2D
:10143000801B02282BD828688001F7D4D4E9070143
:101440000843A16A2B4A490802EB0141626A41EA5A
:101450008211084394F82C1040EA01612048001FD3
:10146000016001203866FFF70DFD044605E034E019
:10147000FFF708FD001B022809D828688001F7D56E
:101480002BE000BFFFF7FEFC001B022802D903205F
:10149000BDE8F88F28688001F4D41EE00128F7D059
:1014A0000868E26900F48001914214D1226A00F0D8
:1014B0003F0191420FD147F6C071626A01409142EB
:1014C00009D1A26A00F44031914204D1E16A00F0EE
:1014D0007060884201D00120DAE70020D8E70000E0
:1014E000083802400038024000004742800E474260
:1014F000007000400000FFFF10B5401EB0F1807F7B
:1015000001D3012010BD4FF0E02460610F2160176E
:1015100000F05AFE0020A06107202061002010BDCD
:101520007047704770B590F83C20012A2CD00124F8
:1015300080F83C40022280F83D2003685A689D688C
:1015400022F070060A6832435A60104B02689A42D1
:101550000ED0B2F1804F0BD00D4B9A4208D00D4BFC
:101560009A4205D00C4B9A4202D00C4B9A4204D1BD
:10157000496825F080031943916080F83D400021BF
:1015800080F83C10084670BD022070BD000001408C
:101590000004004000080040000C004000400140F2
:1015A000704770B50446006801694FF00005C943F3
:1015B000890715D4C168C943890711D4E91E01619F
:1015C00001202077206880698007204602D0FFF73D
:1015D000E7FF04E000F0E8F8204600F099F92577ED
:1015E00020680169C943490717D4C168C94349073D
:1015F00013D46FF004010161022020772068806914
:1016000010F4407F204602D0FFF7CAFF04E000F04C
:10161000CBF8204600F07CF9257720680169C943A2
:10162000090716D4C168C943090712D46FF008012D
:101630000161042020772068C0698007204602D01D
:10164000FFF7AEFF04E000F0AFF8204600F060F9CD
:10165000257720680169C943C90617D4C168C94301
:10166000C90613D46FF010010161082020772068AB
:10167000C06910F4407F204602D0FFF791FF04E0DC
:1016800000F092F8204600F043F9257720680169C0
:10169000C943C90708D1C168C943C90704D1891E14
:1016A0000161204600F052F920680169C94309062A
:1016B00009D4C168C943090605D46FF080010161EE
:1016C0002046FFF72DFF20680169C943490609D468
:1016D000C168C943490605D46FF040010161204645
:1016E00000F035F920680169C94389060BD4C16847
:1016F000C943890607D46FF0200101612046BDE887
:101700007040FFF70EBF70BD70B586B0044614215F
:101710006846FEF795FD226800241F4902251F48F0
:10172000B2F1804F14D01E4B9A420FD10A6842F09A
:1017300002020A6009680095CDE9015401F0020136
:10174000CDE9045103946946FFF7C8FA06B070BDAD
:101750000A6842F002020A600A6802F00202059278
:101760000A6842F001020A600968012601F00101DD
:1017700005914FF481610091CDE90154CDE9034613
:101780006946FFF7ABFAF0030090CDE90154CDE9CB
:10179000034669460348D7E7303802400004024058
:1017A0000004004000000240704770B5044690F805
:1017B0003C000D4601280DD0012684F83C60022033
:1017C00084F83D0042B1042A18D0082A2AD00C2AF5
:1017D0004DD139E0022070BD206800F077FB206811
:1017E000816941F0080181612068816921F004016B
:1017F0008161206881692A69114311E0206800F045
:101800008DFB2068816941F40061816120688169F4
:1018100021F480618161206881692A6941EA02219D
:10182000816124E0206800F0A5FB2068C16941F0D7
:101830000801C1612068C16921F00401C16120680B
:10184000C1692A69114311E0206800F0BFFB2068DC
:10185000C16941F40061C1612068C16921F48061FE
:10186000C1612068C1692A6941EA0221C16184F825
:101870003D60002084F83C0070BD10B5040003D02A
:1018800094F83D0010B107E0012010BD002084F85D
:101890003C00204600F00CF8022084F83D00211D99
:1018A000206800F0B9FA012084F83D00002010BD46
:1018B00008B501681448B1F1804F14D0134A914221
:1018C00020D1016841F0020101600068002200F0AF
:1018D0000200009011461D20FFF744FB1D20BDE8CB
:1018E0000840FFF731BB016841F001010160006869
:1018F000002200F00100009011461C20FFF732FB8F
:101900001C20ECE708BD0000403802400004004005
:101910007047000010B504460068012200F0C8FAC4
:1019200009492068884203D1416C41F40041416477
:101930002068816801F00701062903D0016841F0A1
:1019400001010160002010BD000001407047704798
:1019500070B5040004D094F83900002510B106E0F9
:10196000012070BD84F83850204600F023F8242070
:1019700084F839002068C16821F40051C160204614
:1019800000F046FB2068016921F490410161206864
:10199000416921F02A0141612068C16841F4005188
:1019A000C160E563202084F8390084F83A00002003
:1019B00070BD000010B586B0044614216846FEF7DD
:1019C0003FFC13492068884220D112480021026858
:1019D00042F400320260006800F4003005900D48C7
:1019E0001038026842F001020260006800F0010055
:1019F00005900C2000900220CDE901010320039006
:101A00000720049069460448FFF768F906B010BD46
:101A10000044004040380240000002402DE9F843F5
:101A2000044690F839001F4616460D46202850D12E
:101A3000B5B1AEB194F8380001284AD0012084F83D
:101A400038004FF00008C4F83C80212084F83900A9
:101A5000FFF718FAA6848146E68484F8388026E0E9
:101A60000120BDE8F883E08C401EE084A0684B466E
:101A7000B0F5805F4FF000024FF0800120460097E4
:101A800003D000F059FBE8B90DE000F055FBC8B9F0
:101A900028882168C0F308004860206908B16D1CDF
:101AA00005E0AD1C03E0216815F8010B4860E08CEF
:101AB0000028D8D14B46002240212046009700F054
:101AC0003BFB08B10320CCE7202084F8390000203C
:101AD000C7E70220C5E7FEE77FB500241F48009452
:101AE000019402941C490394C0E900140125056186
:101AF0008460057680F820401949C0E90A1403265D
:101B0000C661C46080F830404561FEF79EFF08B1B1
:101B1000FEF7E4FE07200094CDE9015069460F4826
:101B2000FEF7DEFE08B1FEF7D9FE0220CDE9005037
:101B300069460A48FEF7D4FE08B1FEF7CFFE04203E
:101B4000CDE9000669460548FEF7CAFE002801D027
:101B5000FEF7C4FE7FBD00000020014024000020ED
:101B60000100000F70B586B014216846FEF768FBCF
:101B700026480024016841F004010160016801F079
:101B800004010591016841F080010160016801F0E4
:101B900080010591016841F001010160016801F0D7
:101BA00001010591016841F0020101600068184ED1
:101BB00000F0020005900022C0213046FFF75DF9D9
:101BC0004FF4005000901348CDE9010469461248D3
:101BD000FFF784F8202001258DE831006946304662
:101BE000FFF77CF8C0200090CDE9015469463046EB
:101BF0000394FFF773F8012211462820FFF7B2F98A
:101C00002820FFF7A1F906B070BD0000303802406F
:101C100000000240000021100008024010B58AB008
:101C2000002407941C2168460894FEF709FB1E480F
:101C30004FF08041016040F28331C0E9011440F26D
:101C4000E731C0E903148461FFF717FE08B1FEF71E
:101C500045FE079407A914480894FFF763FC08B1F0
:101C6000FEF73CFE6020CDE90004029400226946A4
:101C70000D480494FFF799FD08B1FEF72FFE0422EA
:101C800069460948FFF791FD08B1FEF727FE0822D3
:101C900069460548FFF789FD08B1FEF71FFE0248B7
:101CA000FFF732FD0AB010BD6C00002010B58AB0FD
:101CB000002407941C2168460894FEF7C1FA1748CF
:101CC0001549016040F28331C0E9011440F2E73167
:101CD000C0E903148461FFF7D0FD08B1FEF7FEFDF3
:101CE000079407A90D480894FFF71CFC08B1FEF7FC
:101CF000F5FD6020CDE9000402940C2269460748F6
:101D00000494FFF752FD08B1FEF7E8FD0348FFF722
:101D1000FBFC0AB010BD000000040040AC00002035
:101D20000C4810B50A4901604FF4E13141600021CF
:101D300081600C22C160C0E904128161C161FFF7BA
:101D400007FE002803D0BDE81040FEF7C7BD10BD58
:101D500000440040EC000020FEE7704770477047E9
:101D6000FFF796B830B593B030216846FEF768FAB1
:101D700014210CA8FEF764FA18480025016841F008
:101D800080510160006800F0805011901448016893
:101D900041F4404101600068022400F44040119089
:101DA00001200090000401908001CDE9064008AABE
:101DB0000420642182E813000B906846FFF7EEF9D7
:101DC0000CA90F2081E83100E0020F901090032150
:101DD0000CA8FFF7F9F813B030BD000040380240FE
:101DE000007000400548016841F47001016003493A
:101DF0004FF00060803908607047000088ED00E017
:101E00000148FFF7CEBB00006C0000200148FFF73F
:101E1000C8BB0000AC000020F0B502681D4B1E4C92
:101E20009F031E4D1E4E984207D0B84205D0A042D7
:101E300003D0A84201D0B04204D122F0700C4A680D
:101E400042EA0C02984210D0B8420ED0A0420CD008
:101E5000A8420AD0B04208D0124CA04205D0124C81
:101E6000A04202D0114CA04203D122F44074CA68AF
:101E700022434C6922F08002224302608A68C262D7
:101E80000A688262984201D10969016301214161B6
:101E9000F0BD0000000001400004004000080040C8
:101EA000000C004000400140004401400048014057
:101EB00010B501F01F030121046A99408C430462AC
:101EC000016A9A401143016210BD000030B5026AF8
:101ED00022F001020262026A4368846924F07305F9
:101EE0000C682C4322F002058A682A430A4DA84256
:101EF0000BD122F00805CA6823F440732A434D69C8
:101F000022F004021D438B692B43436084614968BE
:101F10004163026230BD00000000014030B5026A3A
:101F200022F010020262026A436884690D6824F498
:101F3000E64444EA05248D6822F0200242EA0512B4
:101F40000B4DA8420ED1CD6822F0800242EA051264
:101F50004D6923F4406343EA85038D6922F0400212
:101F600043EA85034360846149688163026230BD4E
:101F70000000014030B5026A22F480720262036AF6
:101F80004268C46923F4007324F073050C682C4381
:101F90008D6843EA05230C4DA8420ED1CD6823F489
:101FA000006343EA05234D6922F4405242EA0512D8
:101FB0008D6923F4806342EA05124260C461496876
:101FC000C163036230BD00000000014030B5026A09
:101FD00022F480520262046A4268C3690D6823F4E5
:101FE000E64343EA05238D6824F4005444EA0534AB
:101FF000064DA84204D14D6922F4804242EA85127E
:102000004260C36149680164046230BD0000014060
:102010002DE9F041044600680169E26821F440516D
:10202000114301612169A068E269084361691143B4
:1020300008432168CA6849F20C639A430243CA60A4
:1020400020684169A26921F4407111434161E0694E
:10205000192764253226B0F5004F354A35492068E6
:102060004FF0000806D0884201D0904236D1FFF7E9
:1020700055F835E0884201D0904202D1FFF74EF882
:1020800001E0FFF73BF861684A18A0FB070148EB45
:102090000803FEF79DF80146B0FBF5F00201B1FB25
:1020A000F5F06FF01803584301EB800006EBC00019
:1020B000B0FBF5F000F0F80002EB4002B1FBF5F0E8
:1020C000584301EB800006EBC000B0FBF5F000F0D8
:1020D0000700216810448860BDE8F081FFF70EF822
:1020E00061688B0F8A00A0FB0701FEF771F80146BB
:1020F000B0FBF5F06FF01802504301EB800006EBE7
:102100000010B0FBF5F000F0F002B1FBF5F002EBCF
:102110000012B1FBF5F06FF01803584301EB80009B
:1021200006EB0010B0FBF5F000F00F00D1E7000067
:1021300000140140001001402DE9F0419846174677
:102140000E460446069D1DE0681C1BD02DB1FEF70F
:1021500099FEA0EB0800A84214D92068C16821F4B8
:10216000D071C1602068416921F0010141612020E6
:1021700084F8390084F83A00002084F838000320FD
:10218000BDE8F0812068006836EA000004D0002035
:10219000B842D9D00020F3E70120F9E7FEE70000BC
:1021A0000FB4084B10B504A902AA039800F02CF84C
:1021B000044602A9002000F0C8F9204610BC5DF8D2
:1021C00014FB00004B2500080907090E002804DB5A
:1021D00000F1E02080F80014704700F00F0000F1DB
:1021E000E02080F8141D704702E008C8121F08C1E3
:1021F000002AFAD170477047002001E001C1121F88
:10220000002AFBD1704700002DE9FF4F8BB08846B4
:102210000546002606E025280BD0DDE90D12904783
:102220006D1C761C28780028F5D10FB03046BDE82B
:10223000F08F0024A146A2460122AE4900E00443EB
:1022400015F8013F203B02FA03F00842F7D1287845
:102250002A2810D06FF02F022878A0F13001092928
:1022600015D809EB890102EB410144F0020400EBAF
:1022700001096D1CF0E758F8041B5FEA010903D55A
:1022800044F40054C9F1000944F002046D1C28789C
:102290002E2817D115F8010F44F004042A280ED077
:1022A0006FF02F022878A0F1300109290AD80AEB33
:1022B0008A0102EB410100EB010A6D1CF2E758F8BC
:1022C00004AB6D1C28786C280FD006DC4C2817D086
:1022D00068280DD06A2814D104E0742810D07A2818
:1022E0000FD10DE044F400140AE044F4801401E03E
:1022F00044F440146978814202D104F580146D1CC5
:102300006D1C2878692865D006DC00288DD06328EC
:1023100027D0642806D15DE06E2808D073282AD023
:10232000752877D0DDE90D129047761CE0E0C4F304
:102330000250022809D003280DD0D8F80010042834
:102340000DD00E6008F10408D2E0D8F80010F217A2
:10235000C1E90062F6E7D8F800100E80F2E70E70CF
:10236000F0E718F8041B8DF8001000208DF801002C
:10237000EB46012003E058F804BB4FF0FF30610743
:102380004FF0000701D40AE07F1C57450DDA874261
:10239000FADB1BF807100029F6D106E07F1C874204
:1023A000FCDB1BF807100029F8D1DDE90D23A9EBB0
:1023B00007008146214600F0B1F83044C61904E018
:1023C000DDE90D121BF8010B90477F1EF8D2214664
:1023D000484688E058F8040BC4F302514FF00A0B4A
:1023E000032900D100B2042900D140B2002802DA4A
:1023F00040422D2102E0210505D52B218DF8241026
:10240000012104E006E0E10710D02021F6E708AF43
:10241000089113E058F8040BC4F302514FF00A0B73
:10242000032900D180B2042900D1C0B20021EEE717
:102430005946FEF7F5F8303107F8011D0028F7D1AD
:10244000ADEB070000F1200B600702D524F48034C7
:1024500001E04FF0010ADA4502DDAAEB0B0000E0D3
:102460000020824600EB0B0108980144A9EB010013
:102470000A90E00306D4DDE90D2321460A9800F016
:102480004DF806444FF0000908E009A911F80900C9
:10249000DDE90D12904709F10109761C089989457B
:1024A000F3DBE0030CD5DDE90D2321460A9800F0AB
:1024B00035F8064404E0DDE90D1230209047761C23
:1024C000BAF10001AAF1010AF5DC05E0DDE90D121F
:1024D00017F8010B9047761CBBF10001ABF1010B23
:1024E000F4DC0A982146DDE90D2300F005F80644E6
:1024F0006D1C97E6092801002DE9F04104460025EE
:102500001E461746880404D405E039462020B0470B
:102510006D1C641EF9D52846BDE8F0812DE9F04117
:10252000044600251E469046C80301D5302700E02A
:102530002027880404D505E041463846B0476D1C85
:10254000641EF9D52846BDE8F0810A68531C0B606B
:10255000107070472DE9F0471E4C01228021204663
:10256000FEF78BFC002240212046FEF786FC1A4D28
:10257000D226286846634FF4FA694846FEF78EFB78
:10258000164C4FF49677206807644846FEF786FBA2
:1025900021684FF09608C1F840804846FEF77EFB60
:1025A00029683C2048634846FEF778FB20680764AA
:1025B0004846FEF773FB2168C1F840804846FEF7A5
:1025C0006DFB28684663BDE8F0474FF4FA70FEF7EC
:1025D00065BB0000000002406C000020AC00002041
:1025E000FEF75EFCFFF7BEFBFFF7BCFAFFF774FADD
:1025F000FFF714FBFFF75AFBFFF792FB0021184887
:10260000FFF788F904211648FFF784F908211448D8
:10261000FFF780F90C211348FFF77CF9114D124C9C
:102620004FF49676962720212046FEF721FC0028BD
:10263000286813D00764012240212046FEF71DFCC4
:10264000002280212046FEF718FC0A20FEF726FB18
:1026500000F00CF86420FEF721FBE4E70664EAE7EB
:102660006C000020AC000020000002402DE9F04189
:102670002DED028B3A48FEF795FA4FF0FF373946B9
:102680003748FEF73DFA3648FEF7DCF9354C394657
:1026900020803348FEF734FA3148FEF7D3F9A080A2
:1026A00039462F48FEF72CFA2D48FEF7CBF986B2B3
:1026B0002088FDF770FF9FED2C8B53EC182BFDF756
:1026C00078FEFDF794FF85B225803046FDF763FF65
:1026D00053EC182BFDF76DFEFDF789FF6080A08895
:1026E000FDF759FF53EC182BFDF763FEFDF77FFF55
:1026F000A0802A461EA12048FFF752FD1E48FDF784
:10270000AAFD82B23B461C491C48FFF787F9628844
:1027100017A11948FFF744FD1748FDF79CFD82B249
:102720003B4615491548FFF779F9A28810A11248D0
:10273000FFF736FD1048FDF78EFD82B23B460E498D
:102740000E48FFF76BF90648FEF78AFAA2886188FF
:102750002088BDEC028BBDE8F04100F040B80000DD
:1027600024000020000000200AD7A3703D0AA73FE4
:102770002568750D0A00000018000020EC000020FC
:102780002DE9F04104462DED068B1E4615460F46F9
:102790001046DDF83080FDF7EDFE41EC180B701BA4
:1027A000FDF7E8FE41EC190B381BFDF7E3FE41ECA9
:1027B0001A0BA8EB0400FDF7DDFE53EC1A2BFDF716
:1027C0006AFE53EC192BFDF7F4FD53EC182BFDF7C3
:1027D00049FDBDEC068BBDE8F041FDF7E9BE70B5E3
:1027E00014460D4600F012F80A20FEF757FA284664
:1027F00000F01CF80A20FEF751FA204600F026F8F7
:10280000BDE870400A20FEF749BA000008B500EBA9
:10281000400000907D231922B4210020FFF7B0FF73
:1028200001490968486308BD6C00002008B54000F4
:1028300000907D231922B4210020FFF7A1FF024957
:102840000968886308BD00006C00002008B500EB33
:10285000400000907D231922B4210020FFF790FF53
:1028600001490968C86308BD6C0000200000000031
:102870000000000001020304060708090000000030
:1028800001020304A4280008000000201800000032
:10289000E8210008BC2800081800002018050000E6
:1028A000F821000800000000000000000100000006
:0C28B00010000000000000000024F400F4
:040000050800019955
:00000001FF
